:03000000022CB817
:0C2CB800787FE4F6D8FD758121022CFF26
:102F8A003132332B3435362D3738392A2E303D2F0E
:102F9A00002567004552524F5200256C66002829C9
:032FAA007E0000A6
:102FAD005000CEEEDEBE7EEDDDBD7DEBDBBB7BE707
:092FBD00D7B777430004FF2F8A07
:102F3A009000041208F9000000001208DF000000E7
:102F4A00009000081208F93F80000090000CE4127B
:092F5A0006B390000DE40206B379
:102DAF00E0FBA3E0FAA3E0F990009EE475F00112B6
:102DBF00078190009E1206FDFFAEF07C007D0E1283
:082DCF0006D5E92FF9EA3EFAEE
:102DD7009000ECEBF0A3EAF0A3E9F09000ECE0FB45
:102DE700A3E0FAA3E0F9122F3A9000ECE0FBA3E08E
:102DF700FAA3E0F990000C742B1206B390000D743F
:042E07002A0206B3E2
:08297400E0FBA3E0FAA3E0F987
:0B297C009000E8EBF0A3EAF0A3E9F004
:102987009000A474FFF5F01207ED9000A2E475F033
:10299700011207ED90009EE4F5F01207ED9000A0FC
:1029A700E4F5F01207ED90009D74FF1206B3900056
:1029B7009C74FF1206B39000EB7401F09000EBE0FB
:1029C700FFC3940A5021EF75F00EA4FF9000E8E0D2
:1029D700FBA3E0FAA3E02FF9EA35F0FA122F3A90B9
:1029E70000EBE004F080D59000E8E0FBA3E0FAA359
:1029F700E0F9122DD7E49000EBF09000EBE0FFC375
:102A0700941050249000E8E0FBA3E0FAA3E0248CA4
:102A1700F9E43AFA7E00E92FF9EE3AFAE41206A150
:082A27009000EBE004F080D206
:012A2F002284
:102F01009000DFEBF0A3EAF0A3E9F0A3E0FBA3E07C
:102F1100FAA3E0F9C003C002C0019000DFE0FBA307
:102F2100E0FAA3E0F99000A612099E9000DFE0FB11
:092F3100A3E0FAA3E0F902297CF7
:0B28B2009000DFEBF0A3EAF0A3E9F0D8
:1028BD0090009C12067490009D1206B390009CED42
:1028CD001206B3C003C002C0019000DFE0FBA3E01D
:1028DD00FAA3E024A9F9E43AFAC002C0019000DF9E
:1028ED00A3E0FAA3E0F99000A21206FDAEF075F098
:1028FD0003A4F58285F083EE75F003A42583F5839B
:10290D00D001D00212096E89828A83D001D002D003
:10291D0003120A21D3EF9400EE64809480402D9031
:10292D0000DFE0FBA3E0FAA3E0F99000A21206FDA0
:10293D00FD9000A4E5F08DF01207ED9000A2EE8F52
:10294D00F01207EDEF64014E701C80149000DFE073
:10295D00FBA3E0FAA3E0F99000A612096E120A1D7E
:06296D009000DF12297446
:012973002241
:102E0B00122C219000E27401F0A37400F0A374DE85
:102E1B00F07B017A00790712249B9000DEE0B4FF6F
:102E2B000E7B017A00790712297C12303080D47B1B
:0F2E3B00017A0079079000DEE0FD1228B280C412
:082B8900E0FBA3E0FAA3E0F970
:0B2B91009000E3EBF0A3EAF0A3E9F0F2
:102B9C00E4900106F090010A74FFF0A3742FF0A3E7
:102BAC00749BF09000E3E0FBA3E0FAA3E0F9900043
:102BBC00E3A3A390009E1206FDF58285F083740EAC
:102BCC0012091D12082890010D1208A27B017A002F
:102BDC0079E6120B40900106E0FF04F074E62FF545
:102BEC0082E43400F583E070EC7FCF122FEF7F048A
:102BFC00122FEF900106E014F0900106E0FF14F0A4
:102C0C00EF6011E024E6F582E43400F583E0FF1276
:042C1C002E6980E5B8
:012C20002291
:102E89009000DF74FFF0A3742FF0A3749EF012304A
:102E9900301230009000DFE0FBA3E0FAA3E0F91262
:102EA900065B60179000DFA3E475F0011206E7A93D
:0B2EB900F0FA12065BFF122E6980D9B0
:012EC40022EB
:0F234A009000DF7D01E0FBA3E0FAA3E0F97C0047
:102359009000E6ECF0A3EDF09000E3EBF0A3EAF0D7
:10236900A3E9F090009D1206746429700302249A6F
:102379009000E91208AE000000009000E3E0FBA322
:10238900E0FAA3E0F990008C1206747E00B47E0492
:102399007F0180027F00E9248CF9E43AFAE92FF9F8
:1023A900EA3EFA9000F074FFF0A3742FF0A374A42E
:1023B900F0A37401F0A37400F0A374E9F012144BB4
:1023C9009000E3E0FBA3E0FAA3E0F990008C120689
:1023D900749000E9B47E10E0FCA3E0FDA3E0FEA345
:1023E900E0FF122AE1800BE0FCA3E0FDA3E0FEA3DD
:1023F900E0FFC004C005C006C0079000E3E0FBA3EE
:10240900E0FAA3E0F990009E1206FDFFAEF07C0011
:102419007D0E1206D5E92FF9EA3EFA9000E6E0FEB4
:10242900A3E07802C333CE33CED8F929F9EA3EFACC
:10243900D007D006D005D004120858E49000E8F07F
:102449009000E3E0FBA3E0FAA3E0F99000A01206F4
:10245900FDFF9000E8E0C39FE5F06480F874809880
:10246900501BE9248CF9E43AFAE07E0029F9EE3AA6
:10247900FAE41206A19000E8E004F080C39000E3BA
:10248900E0FBA3E0FAA3E0F99000A0E4F5F012075D
:01249900ED55
:01249A00221F
:0B21D6009000DFE0FBA3E0FAA3E0F9BB
:0B21E1009000E3EBF0A3EAF0A3E9F0AC
:1021EC009000E3E0FBA3E0FAA3E0F990009E120656
:1021FC00FDF58285F083740E12091D1208289000DB
:10220C00EA1208A29000E3E0FBA3E0FAA3E0F99045
:10221C00009E1206FDFFAEF07C007D0E1206D5E985
:10222C002FF9EA3EFA9000041208289000EE1208EA
:10223C00A290000C12067424D6605224FD602D244A
:10224C00FE606B240460030223199000EEE0FCA3F3
:10225C00E0FDA3E0FEA3E0FF9000EAE0F8A3E0F9C4
:10226C00A3E0FAA3E0FB12000A0223139000EEE0B5
:10227C00F8A3E0F9A3E0FAA3E0FB9000EAE0FCA3EA
:10228C00E0FDA3E0FEA3E0FF120006807A9000EED2
:10229C00E0FCA3E0FDA3E0FEA3E0FF9000EAE0F881
:1022AC00A3E0F9A3E0FAA3E0FB1200FB8059900035
:1022BC00EEE0FCA3E0FDA3E0FEA3E0FF7BAC7AC55F
:1022CC00792778B71202A1501F7FAC7EC57D277C81
:1022DC00379000EEE0F8A3E0F9A3E0FAA3E0FB12DC
:1022EC0002A15004E4FEFF229000EEE0F8A3E0F916
:1022FC00A3E0FAA3E0FB9000EAE0FCA3E0FDA3E07E
:10230C00FEA3E0FF1202049000E61208A29000E681
:10231C00E0FCA3E0FDA3E0FEA3E0FF9000E3E0FB04
:10232C00A3E0FAA3E0F990009E1206FDF58285F079
:0D233C0083740E12091D1208727E007F01CD
:012349002271
:0B2061009000DFE0FBA3E0FAA3E0F931
:0B206C009000E3EBF0A3EAF0A3E9F022
:102077009000E3E0FBA3E0FAA3E0F990009E1206CC
:10208700FDFFAEF07C007D0E1206D5E92FF9EA3E82
:10209700FA9000041208289000EA1208A29000089B
:1020A7001208289000EE1208A290000D1206742460
:1020B700D6605224FD602D24FE606B240460030269
:1020C700218C9000EEE0FCA3E0FDA3E0FEA3E0FF7F
:1020D7009000EAE0F8A3E0F9A3E0FAA3E0FB12001E
:1020E7000A0221869000EEE0F8A3E0F9A3E0FAA344
:1020F700E0FB9000EAE0FCA3E0FDA3E0FEA3E0FF25
:10210700120006807A9000EEE0FCA3E0FDA3E0FE5B
:10211700A3E0FF9000EAE0F8A3E0F9A3E0FAA3E068
:10212700FB1200FB80599000EEE0FCA3E0FDA3E06A
:10213700FEA3E0FF7BAC7AC5792778B71202A150DE
:102147001F7FAC7EC57D277C379000EEE0F8A3E0CB
:10215700F9A3E0FAA3E0FB1202A15004E4FEFF2278
:102167009000EEE0F8A3E0F9A3E0FAA3E0FB90000B
:10217700EAE0FCA3E0FDA3E0FEA3E0FF1202049067
:1021870000E61208A29000E6E0FCA3E0FDA3E0FE53
:10219700A3E0FFC004C005C006C0079000E3E0FB52
:1021A700A3E0FAA3E0F990009E1206FDFFAEF07CD3
:1021B700007D0E1206D5E92FF9EA3EFA900004D009
:0E21C70007D006D005D0041208727E007F01FA
:0121D50022E7
:102A30009000DFEBF0A3EAF0A3E9F0A3EDF0123091
:102A4000309000E2E0FFC394304025EFD39439503A
:102A50001F9000DFE0FBA3E0FAA3E0F99000A012D2
:102A600006FDC39410E5F0648094805003022AD0E0
:102A70009000E2E06428700D9000DF122DAF90000E
:102A8000E2E0FF80309000E2E0FFB47E309000DFB3
:102A9000E0FBA3E0FAA3E0F99000A0E475F00112D6
:102AA0000735FCE9248CF9E43AFAE925F0F9EA3C27
:102AB000FAEF1206A1122E697E007F09229000E231
:102AC000E0FFB42E139000DFE0FBA3E0FAA3E0F9EF
:0D2AD000122E4C7E007F02227EFF7FFF222F
:1025B3009000DFEBF0A3EAF0A3E9F0A3EDF0C394FE
:1025C30030402AE0D3943950249000DFE0FBA3E0AD
:1025D300FAA3E0F99000A01206FDC39410E5F0649D
:1025E30080948050089000E2E0FF0226889000E289
:1025F300E0FF642B600FEF642D600AEF642A60052F
:10260300EF642F706D9000DFE0FBA3E0FAA3E0F925
:10261300E4FDFC1223599000E2E0FFC0079000DFC5
:10262300E0FBA3E0FAA3E0F990009E1206FDFFAEE3
:10263300F07C007D0E1206D5E92FF9EA3EFA9000F0
:102643000CD0E01206B39000E2E0FF122E69900076
:10265300E2E0FF642B6004EFB42D047F03800D9050
:1026630000E2E0B42A047F0480027F05EF3395E0A3
:10267300FE229000E2E0FFB42E139000DFE0FBA304
:10268300E0FAA3E0F9122E4C7E007F02229000E2D2
:10269300E0B43D249000DFE0FBA3E0FAA3E0F9E41B
:1026A300FDFC1223599000E2E0FF122E699000DF37
:0D26B300122B897E007F01227EFF7FFF2217
:102D44009000E31208A27FAC7EC57D277CB790007B
:102D5400E7E0F8A3E0F9A3E0FAA3E0FB12000A908D
:102D640000E3E0F8A3E0F9A3E0FAA3E0FB1202A178
:102D7400603440327FAC7EC57D277C379000E7E02D
:102D8400F8A3E0F9A3E0FAA3E0FB12000A9000E341
:102D9400E0F8A3E0F9A3E0FAA3E0FB1202A15006D5
:0B2DA4007E007F0180047E007F002283
:100F5E009000DFEBF0A3EAF0A3E9F0A3EDF0C39469
:100F6E00304031E0D39439502B9000DFE0FBA3E00A
:100F7E00FAA3E0F99000A01206FDC39410E5F06408
:100F8E00809480500F90009D120674B429030213B2
:100F9E00BD0210C29000E2E0FF642B6012EF642DE0
:100FAE00600DEF642A6008EF642F600302109890C2
:100FBE0000DFE0FBA3E0FAA3E0F990009D120674B7
:100FCE00FF642B600EEF642D6009EF642A6004EF5E
:100FDE00B42F030213BD7D017C001223599000E251
:100FEE00E0FF642B6004EFB42D0A1221D6EF4E7091
:100FFE00030213BD9000E2E0FF642B6004EFB42DFA
:10100E002D9000E2E0FFC0079000DFE0FBA3E0FAC6
:10101E00A3E0F990009E1206FDFFAEF07C007D0E5F
:10102E001206D5E92FF9EA3EFA90000C802B9000BB
:10103E00E2E0FFC0079000DFE0FBA3E0FAA3E0F9D7
:10104E0090009E1206FDFFAEF07C007D0E1206D5BE
:10105E00E92FF9EA3EFA90000DD0E01206B39000A7
:10106E00E2E0FF122E699000E2E0FF642B6004EFD5
:10107E00B42D047F03800D9000E2E0B42A047F06B5
:10108E0080027F07EF3395E0FE229000E2E0FF64DE
:10109E002E6005EF647E70419000DFE0FBA3E0FA66
:1010AE00A3E0F990008C120674FF9000E2E0B50701
:1010BE00030213BD9000E2E0FF9000A0E475F00182
:1010CE00120735FCE9248CF9E43AFAE925F0F9EA3D
:1010DE003CFAEF1206A10213B59000E2E0643D6007
:1010EE000302118612234A9000E2E0FF122E69904D
:1010FE0000DFE0FBA3E0FAA3E0F990009E1206FDEC
:10110E00FFAEF07C007D0E1206D5E92FF9EA3EFA0D
:10111E0090FFFA120828C004C005C006C007900050
:10112E00E71208AE3F800000D007D006D005D004ED
:10113E00122D44EF4E601F9000DFE0FBA3E0FAA3F8
:10114E00E0F99000A41206FDFFAEF064064E6006B4
:10115E00EF64074E700D9000DF122064EF4E7003A7
:10116E000213BD1221D6EF4E70030213BD9000DFA5
:10117E00122B897E007F01229000E2E0642870131A
:10118E009000DF122DAF9000E2E0FF122E697E007C
:10119E007F09229000E2E0642960030213BD12234E
:1011AE004A1221D6EF4E70030213BD9000DFE0FB12
:1011BE00A3E0FAA3E0F990009E1206FDFFAEF07CCC
:1011CE00007D0E1206D5E92FF9EA3EFA90FFF612CF
:1011DE000828C004C005C006C0079000E71208AE7C
:1011EE0000000000D007D006D005D004122D44EF29
:1011FE004E60030213519000DFE0FBA3E0FAA3E080
:10120E00F990009E1206FDFFAEF07C007D0E1206D8
:10121E00D5E92FF9EA3EFA90FFFA120828C004C069
:10122E0005C006C0079000E71208AE3F800000D050
:10123E0007D006D005D004122D44EF4E70030213D2
:10124E00519000DFE0FBA3E0FAA3E0F990009E12BC
:10125E0006FDFFAEF07C007D0E1206D5E92FF9EAF1
:10126E003EFA90FFFF120674642A9000DF7024A3EA
:10127E00E0FAA3E0F990009E1206FDF58285F08358
:10128E00740E12091D120828C004C005C006C0073E
:10129E00021336E0FBA3E0FAA3E0F990009E1206DB
:1012AE00FDFFAEF07C007D0E1206D5E92FF9EA3E69
:1012BE00FA90FFF61208289000001208A29000DFA4
:1012CE00E0FBA3E0FAA3E0F990009E1206FDF58282
:1012DE0085F083740E12091D120828C004C005C0C3
:1012EE0006C00790009E1206FDFFAEF07C007D0E3C
:1012FE001206D5E92FF9EA3EFA90FFF6D007D0068E
:10130E00D005D004120872900000E0FCA3E0FDA30B
:10131E00E0FEA3E0FFC004C005C006C0079000DFDA
:10132E00E0FBA3E0FAA3E0F990009E1206FDFFAEEB
:10133E00F07C007D0E1206D5E92FF9EA3EFA90FFF9
:10134E00FA803F9000DFE0FBA3E0FAA3E0F9900003
:10135E009E1206FDF58285F083740E12091D120889
:10136E0028C004C005C006C00790009E1206FDFFEF
:10137E00AEF07C007D0E1206D5E92FF9EA3EFA900A
:10138E00FFF6D007D006D005D0041208729000DF09
:10139E00E0FBA3E0FAA3E0F990009E74FFF5F012D3
:1013AE0007819000E2E0FF122E697E007F03227E0D
:0413BE00FF7FFF228C
:101C19009000DFEBF0A3EAF0A3E9F0A3EDF0C394A1
:101C2900304037E0D3943950319000DFE0FBA3E036
:101C3900FAA3E0F99000A01206FDC39410E5F06440
:101C4900809480501590009D120674B42903021ED9
:101C5900389000E2122E4A021D619000E2E0FF6412
:101C69002B6012EF642D600DEF642A6008EF642F7A
:101C79006003021D159000DFE0FBA3E0FAA3E0F981
:101C890090009D120674FF642B600EEF642D6009AD
:101C9900EF642A6004EFB42F03021E387D017C0033
:101CA9001223599000DF1221D9EF4E7003021E381A
:101CB9009000E2E0FFC0079000DFE0FBA3E0FAA399
:101CC900E0F990009E1206FDFFAEF07C007D0E1239
:101CD90006D5E92FF9EA3EFA90000CD0E01206B3D6
:101CE9009000E2E0FF122E699000E2E0FF642B60B1
:101CF90004EFB42D047F03800D9000E2E0B42A04C0
:101D09007F0480027F05EF3395E0FE229000E2E038
:101D1900FF642E6005EF647E70439000DFE0FBA353
:101D2900E0FAA3E0F990008C120674FF9000E2E05B
:101D3900B50703021E389000E2E0FF9000A0E475A9
:101D4900F001120735FCE9248CF9E43AFAE925F0A7
:101D5900F9EA3CFAEF1206A17E007F04229000E224
:101D6900E0643D70269000DF12234D9000E2E0FF11
:101D7900122E699000DF1221D9EF4E7003021E382E
:101D89009000DF122B897E007F01229000E2E0643F
:101D99002870139000DF122DAF9000E2E0FF122EA1
:101DA900697E007F09229000E2E064296003021E37
:101DB900389000DF12234D9000DF1221D9EF4E70C9
:101DC90002806C9000DFE0FBA3E0FAA3E0F9900049
:101DD9009E1206FDF58285F083740E12091D120804
:101DE90028C004C005C006C00790009E1206FDFF6A
:101DF900AEF07C007D0E1206D5E92FF9EA3EFA9085
:101E0900FFF6D007D006D005D0041208729000DF83
:101E1900E0FBA3E0FAA3E0F990009E74FFF5F0124D
:101E290007819000E2E0FF122E697E007F03227E87
:041E3900FF7FFF2206
:101E3D009000DFEBF0A3EAF0A3E9F0A3EDF0C3947B
:101E4D00304037E0D3943950319000DFE0FBA3E010
:101E5D00FAA3E0F99000A01206FDC39410E5F0641A
:101E6D00809480501590009D120674B429030220B1
:101E7D005C9000E2122E4A021F859000E2E0FF64A2
:101E8D002B6012EF642D600DEF642A6008EF642F54
:101E9D006003021F399000DFE0FBA3E0FAA3E0F935
:101EAD0090009D120674FF642B600EEF642D600987
:101EBD00EF642A6004EFB42F0302205C7D017C00E7
:101ECD001223599000DF1221D9EF4E700302205CCE
:101EDD009000E2E0FFC0079000DFE0FBA3E0FAA373
:101EED00E0F990009E1206FDFFAEF07C007D0E1213
:101EFD0006D5E92FF9EA3EFA90000CD0E01206B3B0
:101F0D009000E2E0FF122E699000E2E0FF642B608A
:101F1D0004EFB42D047F03800D9000E2E0B42A0499
:101F2D007F0480027F05EF3395E0FE229000E2E012
:101F3D00FF642E6005EF647E70439000DFE0FBA32D
:101F4D00E0FAA3E0F990008C120674FF9000E2E035
:101F5D00B5070302205C9000E2E0FF9000A0E4755D
:101F6D00F001120735FCE9248CF9E43AFAE925F081
:101F7D00F9EA3CFAEF1206A17E007F05229000E2FD
:101F8D00E0643D70269000DF12234D9000E2E0FFEB
:101F9D00122E699000DF1221D9EF4E700302205CE2
:101FAD009000DF122B897E007F01229000E2E06419
:101FBD002870139000DF122DAF9000E2E0FF122E7B
:101FCD00697E007F09229000E2E06429600302200F
:101FDD005C9000DF12234D9000DF1221D9EF4E707F
:101FED0002806C9000DFE0FBA3E0FAA3E0F9900023
:101FFD009E1206FDF58285F083740E12091D1208DE
:10200D0028C004C005C006C00790009E1206FDFF43
:10201D00AEF07C007D0E1206D5E92FF9EA3EFA905E
:10202D00FFF6D007D006D005D0041208729000DF5D
:10203D00E0FBA3E0FAA3E0F990009E74FFF5F01227
:10204D0007819000E2E0FF122E697E007F03227E61
:04205D00FF7FFF22E0
:1019A4009000DFEBF0A3EAF0A3E9F0A3EDF0C39419
:1019B400304031E0D39439502B9000DFE0FBA3E0BA
:1019C400FAA3E0F99000A01206FDC39410E5F064B8
:1019D400809480500F90009D120674B42903021C59
:1019E40014021B159000E2E0FF642B6012EF642DDB
:1019F400600DEF642A6008EF642F6003021AEB9015
:101A040000DFE0FBA3E0FAA3E0F990009D12067466
:101A1400FF642B600EEF642D6009EF642A6004EF0D
:101A2400B42F03021C147D027C001223591220617E
:101A3400EF4E7003021C149000E2E0FF642B60047C
:101A4400EFB42D0D9000DF1221D9EF4E7003021C6C
:101A5400149000E2E0FF642B6004EFB42D2D90009D
:101A6400E2E0FFC0079000DFE0FBA3E0FAA3E0F9A7
:101A740090009E1206FDFFAEF07C007D0E1206D58E
:101A8400E92FF9EA3EFA90000C802B9000E2E0FF87
:101A9400C0079000DFE0FBA3E0FAA3E0F990009E0A
:101AA4001206FDFFAEF07C007D0E1206D5E92FF97B
:101AB400EA3EFA90000DD0E01206B39000E2E0FF97
:101AC400122E699000E2E0FF642B6004EFB42D0451
:101AD4007F03800D9000E2E0B42A047F0680027F39
:101AE40007EF3395E0FE229000E2E0FF642E6005EC
:101AF400EF647E70279000DFE0FBA3E0FAA3E0F937
:101B040090008C120674FF9000E2E0B50703021CFB
:101B1400149000E2122E4A7E007F06229000E2E03A
:101B2400643D70329000DF7D0212234F9000E2E0AA
:101B3400FF122E69122061EF4E7003021C149000F4
:101B4400DF1221D9EF4E7003021C149000DF122B18
:101B5400897E007F01229000E2E0642870139000E7
:101B6400DF122DAF9000E2E0FF122E697E007F09A4
:101B7400229000E2E064296003021C149000DFE07C
:101B8400FBA3E0FAA3E0F97D027C001223591220A2
:101B940061EF4E7003021C149000DF1221D9EF4E46
:101BA4007002806C9000DFE0FBA3E0FAA3E0F99000
:101BB400009E1206FDF58285F083740E12091D1233
:101BC4000828C004C005C006C00790009E1206FD88
:101BD400FFAEF07C007D0E1206D5E92FF9EA3EFA3D
:101BE40090FFF6D007D006D005D0041208729000FA
:101BF400DFE0FBA3E0FAA3E0F990009E74FFF5F0A8
:101C04001207819000E2E0FF122E697E007F03221A
:051C14007EFF7FFF22AE
:10171C009000DFEBF0A3EAF0A3E9F0A3EDF0C394A3
:10172C00304031E0D39439502B9000DFE0FBA3E044
:10173C00FAA3E0F99000A01206FDC39410E5F06442
:10174C00809480500F90009D120674B429030219E6
:10175C009F0218909000E2E0FF642B6012EF642D62
:10176C00600DEF642A6008EF642F60030218669026
:10177C0000DFE0FBA3E0FAA3E0F990009D120674F1
:10178C00FF642B600EEF642D6009EF642A6004EF98
:10179C00B42F0302199F7D027C001223599000DFA5
:1017AC00122064EF4E700302199F9000E2E0FF6478
:1017BC002B6004EFB42D0D9000DF1221D9EF4E7089
:1017CC000302199F9000E2E0FF642B6004EFB42D3C
:1017DC002D9000E2E0FFC0079000DFE0FBA3E0FAF1
:1017EC00A3E0F990009E1206FDFFAEF07C007D0E8A
:1017FC001206D5E92FF9EA3EFA90000C802B9000E6
:10180C00E2E0FFC0079000DFE0FBA3E0FAA3E0F901
:10181C0090009E1206FDFFAEF07C007D0E1206D5E8
:10182C00E92FF9EA3EFA90000DD0E01206B39000D1
:10183C00E2E0FF122E699000E2E0FF642B6004EFFF
:10184C00B42D047F03800D9000E2E0B42A047F06DF
:10185C0080027F07EF3395E0FE229000E2E0FF6408
:10186C002E6005EF647E70279000DFE0FBA3E0FAAA
:10187C00A3E0F990008C120674FF9000E2E0B5072B
:10188C000302199F9000E2122E4A7E007F072290DD
:10189C0000E2E0643D703F9000DFE0FBA3E0FAA3C0
:1018AC00E0F97D027C001223599000E2E0FF122E39
:1018BC00699000DF122064EF4E700302199F9000B4
:1018CC00DF1221D9EF4E700302199F9000DF122B0B
:1018DC00897E007F01229000E2E064287013900062
:1018EC00DF122DAF9000E2E0FF122E697E007F091F
:1018FC00229000E2E06429600302199F9000DFE06F
:10190C00FBA3E0FAA3E0F97D027C001223599000BE
:10191C00DF122064EF4E700302199F9000DF12213A
:10192C00D9EF4E7002806C9000DFE0FBA3E0FAA3CD
:10193C00E0F990009E1206FDF58285F083740E127C
:10194C00091D120828C004C005C006C00790009EDF
:10195C001206FDFFAEF07C007D0E1206D5E92FF9C4
:10196C00EA3EFA90FFF6D007D006D005D004120854
:10197C00729000DFE0FBA3E0FAA3E0F990009E7404
:10198C00FFF5F01207819000E2E0FF122E697E0055
:08199C007F03227EFF7FFF2282
:1026C0009000DFEBF0A3EAF0A3E9F0A3EDF0C394F0
:1026D000304039E0D3943950339000DFE0FBA3E081
:1026E000FAA3E0F99000A01206FDC39410E5F0648F
:1026F000809480501790009D120674B4290302271D
:10270000C79000E2122E4A7E007F02229000E2E093
:10271000642870609000DFE0FBA3E0FAA3E0F9908A
:10272000009EE475F00112078190009E1206FDFFE5
:10273000AEF07C007D0E1206D5EF24F2FDEE34FFE4
:10274000FCE92DF9EA3CFAC003C002C0019000DFA9
:10275000E0FBA3E0FAA3E02FF9EA3EA801FCAD03F9
:10276000D001D002D0037E007F0E1206359000E229
:10277000E0FF804B9000E2E0FF642E6005EF647E96
:1027800070459000DFE0FBA3E0FAA3E0F990008C35
:10279000120674FF9000E2E0B50702802A9000E282
:1027A000E0FF9000A0E475F001120735FCE9248CED
:1027B000F9E43AFAE925F0F9EA3CFAEF1206A11237
:0C27C0002E697E007F09227EFF7FFF2231
:102EC50020900B12300F3090FD7E007F0122209163
:102ED5000B12300F3091FD7E007F022220920B12E3
:102EE500300F3092FD7E007F032220930B12300FAE
:0C2EF5003093FD7E007F0422E4FEFF22EB
:0B249B009000DFEBF0A3EAF0A3E9F0F3
:1024A6009000E6E4F0A304F09000E6A3E09000E5D7
:1024B600F0E4A3F0A3F075B0FF122EC5EF4E605105
:1024C600EF4E604DEF24FFFFEE34FFFE74A82FF5AC
:1024D60082742F3EF583E493FF9000E2E0FBA3E0D5
:1024E600FAA3E0F9EF1206A19000E2E0FBA3E0FAFE
:1024F600A3E0F912065B60030225B29000DF122901
:10250600749000E2E0FBA3E0FAA3E0F974FF022571
:102516009F75B00FE5B0640F609C12300F9000E518
:10252600E5B0F075B0F0E5B064F0608AE045B0FF64
:102536009000E2E0FBA3E0FAA3E0F9EF1206A1E4C3
:102546009000E6F0A3F09000E6E0FEA3E0FFC3945F
:1025560010EE6480948050549000E2E0FBA3E0FA11
:10256600A3E0F912065BFD74CE2FF58274003EF5EA
:1025760083E0B50527900004E0FBA3E0FAA3E0F9A9
:102586009000E6A3E0F5828E83120674FF9000E2C7
:10259600E0FBA3E0FAA3E0F9EF0206A19000E7E072
:0C25A60004F070A29000E6E004F0809ABF
:0125B2002206
:0E3000007FB87E0BEF1FAC0670011E4C70F601
:01300E00229F
:0E300F007F407E1FEF1FAC0670011E4C70F656
:01301D002290
:102FEF008F80C2A6C2A5123000D2A7123000C2A78E
:012FFF0022AF
:102E4A00E0FF9000A0E475F001120735FCE9248C3C
:0F2E5A00F9E43AFAE925F0F9EA3CFAEF1206A199
:102E6900AD07D2A5C2A6E580B411057FC0122FEF28
:102E7900AF058F80D2A6C2A5D2A7123000C2A72261
:102C2100C2A77F38122FEF7F0E122FEF7F06122FD0
:102C3100EF7F01122FEF7F80122FEF9000E274FFE0
:102C4100F0A3742EF0A37489F07B017A0079071246
:102C51002F019000B374FFF0A3742AF0A37430F035
:102C6100A374FFF0A37425F0A374B3F0A374FFF071
:102C7100A3740FF0A3745EF0A374FFF0A3741CF0AF
:102C8100A37419F0A374FFF0A3741EF0A3743DF0B4
:102C9100A374FFF0A37419F0A374A4F0A374FFF05C
:102CA100A37417F0A3741CF09000CB74FFF0A3740D
:072CB10026F0A374C0F0221D
:07303000C2A77F01022FEF90
:1000030002034FE86480F8E933E83360110460F0D9
:10001300ED33EC337009E8FCE9FDEAFEEBFF220463
:1000230060DED3EB9FEA9EE99DE8C2E78CF0C2F75E
:1000330095F0400CE8CCF8E9CDF9EACEFAEBCFFB2A
:1000430012031A85D0F05804700320D5B3E8047066
:10005300075002B2D502035992D5EC0460F7E4CC01
:10006300C0E0C398F8603B94186008400DD0E0FBF3
:10007300020331E4FBFAC9FC8028E830E406E4C952
:10008300FBE4CAFCE830E305E4C9CACBFCE8540747
:100093006010F8C3E913F9EA13FAEB13FBEC13FC52
:1000A300D8F130F52FC3E49CFCEF9BFFEE9AFEEDF5
:1000B30099FDD0E0FBEF4E4D4C701222DB0302039F
:1000C30056EC2CFCEF33FFEE33FEED33FDED30E762
:1000D300EB020331EF2BFFEE3AFEED39FDD0E0FBEF
:1000E30050130BBB0003020359ED13FDEE13FEEF98
:0800F30013FFEC13FC020331C2
:1000FB00EC4D6011E8497017ED33EC3304600DE4FF
:10010B00FCFFFEFD22E933E8330470F802034F12C3
:10011B00031A58046009E4CC2481500628500902C4
:10012B000359284003020356C0E0EB4A7044B980E0
:10013B0006D0E0FB020345EF4E701CBD8008EBFFC1
:10014B00EAFEE9FD80EBE98DF0A4FEE5F00201E4A7
:10015B00E9CDF9EAFEEBFFEF89F0A4FCE5F0CE89DF
:10016B00F0A42EFFE435F0CD89F0A42DFEE435F09C
:10017B008067EF4E7005BD80D780C3EF8BF0A4ACCA
:10018B00F0EE8BF0A42CFCE435F0F8EF8AF0A42C05
:10019B00E5F038FCE433CB8DF0A42CFCE5F03BF818
:1001AB00EE8AF0A42CFCE5F038F8E433CF89F0A408
:1001BB002CFCE5F038CF3400CE89F0A42FFFE5F00E
:1001CB003EFEE433C98DF0A42EFEE5F039CD8AF066
:1001DB00A42FFFE5F03EFEE43DFD33D0E0FB5007DE
:1001EB000BBB000F020359EC2CFCEF33FFEE33FE7D
:0601FB00ED33FD020331AB
:10020100020359EC5D046005E85904700302034FD1
:1002110012031A580460F6EC4860F2EC7004FDFE1B
:10022100FF22C860DB2481C85009C39860025006D0
:100231000203569850CAF582E9294B4A7005AB82F0
:1002410002034575F0007C1A7880C3EF9BEE9AEDAE
:1002510099400DC3EF9BFFEE9AFEED99FDE842F048
:10026100DC23ACF0D0E0FFD0E0FED0E0FDAB82209B
:10027100E7101BEB60BAEC2CFCEF33FFEE33FEED25
:1002810033FD020331E803F830E705C0F075F000F3
:10029100EF2FFFEE33FEED33FD40B830E7C280AA09
:1002A10074F8CC6480CCC86480C8F58204604FC304
:1002B100EB9FF5F0EA9E42F0E99D42F0E89C45F0A3
:1002C100603C501DE5825FFFE582D313CB5BCBF42D
:1002D1002B5582FB50280ABA002409B90020088056
:1002E1001DE5825BFBE582D313CF5FCFF4C3132FF0
:1002F1005582FF50090EBE00050DBD00010CC3EB78
:100301009FF5F0EA9E42F0E99D42F0E89C45F060DD
:0903110007CC4820E701B3EC22FF
:100ADB00E508240AF582E43401F583E00508229049
:100AEB00010730070390010AE475F0011209370280
:100AFB00065B2000E97F2ED2008018EF540F249064
:100B0B00D43440D4FF30040BEF24BFB41A0050038D
:100B1B002461FFE50960021509050CE50C7002055F
:100B2B000B30070E900107E475F001120937EF0245
:100B3B0006A1022F637403D2078003E4C207F508F2
:100B4B00900107120965E4F509F50BF50CE5096051
:100B5B00077F20120B1E80F5750AFFC201C200C26F
:100B6B0002C203C205C206C208120AEAFF700D30A8
:100B7B0007057F00120B2FAF0CAE0B22B4255FC203
:100B8B00D5C204120AEAFF24D0B40A00501A75F039
:100B9B000A780930D50508B6FF0106C6A426F6204B
:100BAB00D5047002D20380D924CFB41A00EF5004BD
:100BBB00C2E5D204020E21D20180C6D20080C0D27F
:100BCB000280BCD2D580BAD20580B47F20120B1E16
:100BDB002002077401B5090040F1120ADBFF120B6A
:100BEB001E020B58D208D2068095120ADBFB120AA2
:100BFB00DBFA120ADBF94A4B7006791F7A0F7BFF7F
:100C0B0020022EE509602A7E008E82758300120673
:100C1B007460060EEE650A70F0C2D5EBC0E0EAC058
:100C2B00E0E9C0E0EE120E82D0E0F9D0E0FAD0E0BD
:100C3B00FB12065BFF60AAEBC0E0EAC0E0E9C0E094
:100C4B00120B1ED0E02401F9D0E03400FAD0E0FB07
:100C5B00E50A0460DCD50AD98087D20280A2120E85
:100C6B006460F7E50A700104120364A90A600DE5DC
:100C7B000A600914F50A120F0CEF60F3EA30E70271
:100C8B00F404C3995079EAF4250A0430E701E4042B
:100C9B00F50A800D120E6460C1EA050A250A1203DB
:100CAB0064EA900136F030E701E4250A04D50A0422
:100CBB0020050114120E82E4C0E0120F0C900136D5
:100CCB00E0601320E70714F0120B06802204F0D02B
:100CDB00E014C0E07F00120B06E50A6007120AFD64
:100CEB00150A800B300503120AFDD0E0020B58D019
:100CFB00E00480C4120E64609EE50A041203649043
:100D0B000136EAF0E50A2005026001042404120E04
:010D1B008255
:100D1C0074FF04C0E0120F0C120B06E50A2005024A
:100D2C006003120AFDD0E0B50AE87F45120B109063
:100D3C000136E07F2B30E7047F2DF404C0E0120B6A
:100D4C001ED0E075F00A84C0F0120B07D0E0120B35
:100D5C0007020B58791080027908C206C208800875
:100D6C00D2D5790A8004790AC2D5E50A047002F555
:100D7C000AE4FAFDFEFF120ADBFC7B0820011312C9
:100D8C000ADBFD7B1030000A120ADBFE120ADBFFC5
:100D9C007B20EC3382D592D55013C3E43000069FF0
:100DAC00FFE49EFEE42001039DFDE49CFCE4CBF8F3
:100DBC00C201EC700CCFCECDCCE824F8F870F380E7
:100DCC0017C3EF33FFEE33FEED33FDEC33FCEB33A7
:100DDC00FB994002FB0FD8E9EB300105F8D0E0C4D9
:100DEC0048B201C0E00AEC4D4E4F78207B0070C237
:100DFC00EAB50A0040BCC0E0120E84D0F0D0E0206E
:100E0C000104C4C0E0C4B201C0F0120B07D0F0D58D
:100E1C00F0EB020B581209F70BF5530D60580BC68B
:100E2C004C0BC2420D644F0D6C440D6C490BDB43F3
:100E3C000D72550C9F460CFF450C69470F3F500B2C
:100E4C00CA2D0BCE2E0BF12B0BD2230BEF200F2820
:100E5C002A0B8A4800000BE9E50AB4FF03750A0661
:100E6C00120ADBFC120ADBFD120ADBFE120ADBFFA4
:100E7C0090012F0203A1790AA2D520031430050991
:100E8C00B910020404B9080104A2D52006025001CD
:100E9C00042002689202B509005034C0E07F203073
:100EAC0003197F30A20272067205500F120EDBC2BC
:100EBC0002C206C205C2087F30800F300503E9C0AC
:100ECC00E0120B1E300503D0E0F9D0E0B509CC30B0
:100EDC0005177F30B9100C120B1E7F583004077F9A
:100EEC00788003B90803120B1E3002057F2D020B0C
:100EFC001E7F202008F87F2B2006F322920280CF41
:100F0C007F00B40700500B242FF582E43401F583E5
:100F1C00E0FF22286E756C6C2900D201120ADB30BE
:100F2C0001F8C201780930D50108F6020B8A2D5060
:100F3C00434958120ADB2403B405004001E4900F26
:100F4C003A93120B0F743A120B0FD2037509040269
:020F5C000D6026
:1013C200E50830030104F8232824F0F582E4340010
:1013D200F583229000ED3003039000F0E475F001F4
:1013E20012093702065B60EAC50C7002150B14C5C0
:1013F2000C200304FF0230289000ED74FFF5F00288
:10140200094EFF022FDBE5096006D509037F0022A2
:1014120020030F122FC7EF6008050CE50C700205C0
:101422000B229000ED12092E12065BFF60E890007D
:10143200EDE475F00112093780DC121412EFC0E0FE
:10144200121404D0E040F3809DD2038002C20390C4
:1014520000ED120965E4F50AF508F50BF50C7509BE
:1014620000C202C200C201C2041213D5FF7005AF4E
:101472000A7E0022B425301213D5FF24D0B40A000C
:10148200500C75F00AC509A42509F50980E924CF95
:10149200B41A00EF5002C2E50216E8D20180D8D297
:1014A2000080D4D20480D0EF121404500812143CED
:1014B200EF600E80A9EFC0E0121412D0E06F609EC0
:1014C200EF60741213E880A7121412EF6069E50945
:1014D200700705098003121412EF601420040E1223
:1014E20013C2E475F001120937EF1206A1D509E61D
:1014F2002004040508050A80BA121408EFC0E0129D
:101502001404D0E050041213E8E4FF20040E121376
:10151200C2E475F001120937EF1206A1EF70DA206A
:1015220004040508050A808BE50960020509121406
:101532003C121408EF70C6300304E41213E8E50A03
:1015420060030214717EFF7FFF22E5096002050934
:1015520012143CD206D205121408EF30060260D7EC
:10156200C0E01213E8D0E0AC0DAD0EAE0FAF10121A
:1015720027DF8C0D8D0E8E0F8F105007121412C2A2
:101582000580D4200410200502050A1213C2120994
:031592002E05081B
:10159500120858021460D0E0809A7900800A791008
:1015A500800679088002790AD205E50960020509F5
:1015B500E9C0E012143CEF60DD121412BF2D04D215
:1015C500028003BF2B0912143CEF60CA121408D025
:1015D500E0B40A028033B40802802EBF30277002BF
:1015E5007408C205C0E0121408D0E0BF7802800379
:1015F500BF58160509D509028007D50904D205800B
:101605000B741080197002740ABF000AEFF8E4FC2D
:10161500FDFEFF02169BC0E0EF1213E8D0E0F9E4EF
:10162500FCFDFEFFE9C0E0ECC0E0EDC0E0EEC0E08F
:10163500EFC0E0121408EFF8D0E0FFD0E0FED0E0F4
:10164500FDD0E0FCD0F0E8604DB461004007B47B0C
:10165500005002C2E524D0503DFA24F6500724F983
:101665005034240AFAEAB5F000502BCFA9F0A42F84
:10167500FF92D5E9C5F0CEA4A2D53EFE92D5E9C527
:10168500F0CDA4A2D53DFD92D5E9C5F0CCA4A2D557
:101695003CFCC205808EE8C0E020042A2005080530
:1016A5000A30020312081A1213C212092E05082065
:1016B500000B20010DEE8FF01207CE80091208589D
:1016C5008004EF1206A1D0E01213E8021460200492
:1016D500101213C212092E0508E50B850CF012072E
:1016E500CE80E81209F7152A5315A35814A14C14F6
:1016F5009D4214794815A74F15AB4414CA43159F4D
:101705004915AB55154C46154C45154C4714A52A9E
:0717150016D34E000014A9D9
:102ADD0002034F22EDA2E7D2E7F9EC3340F260F3A7
:102AED00B4FF08ED547F70E8020359F82481C2E069
:102AFD00C0E0F40428FAC313FCED92E7FD9000ED5D
:102B0D001208A2EEA2E7E9BA7F02C31334009400C3
:102B1D00FA75F091A4E5F013F494FE8AF0A433E570
:102B2D00F033248CD313FDE492E7FE7F007C3F75D8
:102B3D008302ECC0E0F8EDC0E0F9EEC0E0FAEFC0C2
:102B4D00E0FB8583F09000ED12089685F08312026C
:102B5D0004D0E0FBD0E0FAD0E0F9D0E0F812000AA2
:102B6D00ED6480FD30E7011CD583C7ED33CC33F820
:0C2B7D00D0E0A2E71328C313CC13FD2204
:10031A00E9D2E7C933E833F892D5EDD2E7CD33EC29
:07032A0033FC5002B2D522A2
:10033100EC30E7100FBF000C0EBE00080DBD00042D
:100341000BEB6014A2D5EB13FCED92E7FD2274FFD9
:10035100FCFDFEFF22E480F8A2D574FF13FC7D8032
:03036100E480EF46
:10036400F920E73624F950037907E4F42402FBE585
:1003740082158270021583DBF6E024FB501BE960D2
:1003840014E4F0E582158270021583E004F0B40AE7
:0D03940008E4F0D9EE7401F00A22C2D5226F
:1003A100ED33EC3392D5FA602AB4FF33EDC2E77B2B
:1003B100FF60067A0379C6E4227A0379CF20D50457
:1003C1007A0379CA224E614E002B494E46002D49CF
:1003D1004E4600E47A08F0A3DAFC7B00740722C0E1
:1003E10083C082ECC0E0EDC0E0EEC0E0EFC0E0EA27
:1003F10075F010A4CAABF075F04DA42BFBE435F0F9
:10040100FCEA2410FAEB34C5FBEC34D9FCEDC2E76D
:10041100FF75F056A4F42411C5F0F434C58FF0A48F
:100421002AE5F03BE43CF020E714120525D0E0FF7B
:10043100D0E0FED0E0FDD0E0FC1202048014F40410
:10044100120525D0E0FFD0E0FED0E0FDD0E0FC12A7
:1004510000FBD082D083E0FAEDD2E7CD33EC332438
:1004610082FBE4C3CF33CFCE33CECD33CD33DBF3F9
:100471007B0775F00A846004F0A31B0AE5F0F0A382
:100481008FF0740AA4FFACF08EF0740AA42CFEACB9
:10049100F050010C8DF0740AA42CFDE435F0F0A3AA
:0504A100DBDE74072200
:1027CC00C207C208C209C20AF9E4F511F512FCFDF0
:1027DC00FEFFE91006EA20090CB42D04D209D3221D
:1027EC00B42B02D32224D0504794095041240A30F0
:1027FC000A15F88512F0740AA42872E74051C5F046
:10280C00704D85F012D322D208C0E0E4FBFA792097
:10281C0078411200FBECF8EDF9EEFAEFFBD0E0FC9E
:10282C00E41204C112000A3007B41511D322240A91
:10283C00200A20B4FE0720071AD207D32224EB600B
:10284C000424E0700EA2099207D20AC209D322C353
:10285C0002034FE4300A0BE512300902F404A2071C
:10286C0092093008EA251120D2E5A2E7920A50021B
:10287C00F404B4260050D8CCC0E0EDC0E0EEC0E0CB
:10288C00EFC0E0EC120525D0E0FFD0E0FED0E0FD7B
:10289C00D0E0FC200A051200FB8003120204300970
:0628AC00031204A6C32282
:1004A600ED33EC33600A047003BD8004ECB2E7FC64
:0104B6002223
:1004B70075F020800E75F010800575F0087D007EC0
:1004C700007F003392D530D50312081AEC33401061
:1004D700EF33FFEE33FEED33FDEC33FCD5F0ED22C9
:0E04E700E5F0247EA2D513CC92E7CDCEFF2205
:1004F5003F8000004120000042C80000447A00000F
:10050500461C400047C35000497424004B18968090
:100515004CBEBC205A0E1BCA6753C21C749DC5AE87
:10052500FB60065407601C2323120553EB54386007
:100535000912053F12054E1200FBECF8EDF9EEFA33
:10054500EFCB22EB12054E80F1543803241C9004A6
:10055500F5FE93FC0EEE93FD0EEE930ECE93FF2269
:102CC400022E0BE493A3F8E493A34003F68001F2ED
:102CD40008DFF48029E493A3F85407240CC8C33311
:102CE400C4540F4420C8834004F456800146F6DFE0
:102CF400E4800B0102040810204080902FADE47E94
:102D0400019360BCA3FF543F30E509541FFEE493D4
:102D1400A360010ECF54C025E060A840B8E493A39B
:102D2400FAE493A3F8E493A3C8C582C8CAC583CAC6
:102D3400F0A3C8C582C8CAC583CADFE9DEE780BE7E
:012FC600000A
:10056500E709F608DFFA8046E709F208DFFA803E78
:1005750088828C83E709F0A3DFFA8032E309F60865
:10058500DFFA8078E309F208DFFA807088828C83CD
:10059500E309F0A3DFFA806489828A83E0A3F60881
:1005A500DFFA805889828A83E0A3F208DFFA804C5B
:1005B50080D280FA80C680D4806980F28033801032
:1005C50080A680EA809A80A880DA80E280CA80339B
:1005D50089828A83ECFAE493A3C8C582C8CCC58313
:1005E500CCF0A3C8C582C8CCC583CCDFE9DEE780E3
:1005F5000D89828A83E493A3F608DFF9ECFAA9F062
:10060500EDFB2289828A83ECFAE0A3C8C582C8CCB7
:10061500C583CCF0A3C8C582C8CCC583CCDFEADED0
:10062500E880DB89828A83E493A3F208DFF980CC32
:1006350088F0EF60010E4E60C388F0ED2402B4042B
:100645000050B9F582EB2402B4040050AF232345D2
:0606550082239005B5733D
:10065B00BB010689828A83E0225002E722BBFE029D
:09066B00E32289828A83E49322D0
:10067400BB010CE58229F582E5833AF583E022503B
:1006840006E92582F8E622BBFE06E92582F8E22285
:0D069400E58229F582E5833AF583E493229F
:1006A100BB010689828A83F0225002F722BBFE0138
:0206B100F32232
:1006B300F8BB010DE58229F582E5833AF583E8F07D
:1006C300225006E92582C8F622BBFE05E92582C829
:0206D300F22211
:1006D500EF8DF0A4A8F0CF8CF0A428CE8DF0A42E39
:0206E500FE22F3
:1006E700A3F8E0C5F025F0F0E582158270021583C6
:0606F700E0C838F0E82223
:1006FD00BB0110E58229F582E5833AF583E0F5F03B
:10070D00A3E0225009E92582F886F008E622BBFE17
:10071D000AE92582F8E2F5F008E222E5832AF5835D
:08072D00E993F5F0A3E9932222
:10073500BB010FF8E58229F582E5833AF583E802E6
:1007450006E75011C58229F808C5F026C6F5F01848
:10075500C58236C622BBFE15C58229F808E2C5F05A
:1007650025F0F218E2C5823582F2E58222E5832A78
:0C077500F583E993F5F0A3E993C5F022A9
:10078100BB010DC58229C582C5833AC583020A23EF
:100791005011C58229F808E5F026F618F5F0E58232
:1007A10036F622BBFE11C58229F808E225F0F5F0E4
:1007B100F218E23582F222F8E58229F582E5832AF0
:0D07C100F58374019325F0F5F0E4933822E0
:1007CE00BB010A89828A83F0E5F0A3F0225006F776
:0F07DE0009A7F01922BBFE06F3E5F009F3192273
:1007ED00F8BB0111E58229F582E5833AF583E8F03E
:1007FD00E5F0A3F0225009E92582C8F608A6F022FB
:0D080D00BBFE09E92582C8F2E5F008F222E1
:0E081A00C3E49FFFE49EFEE49DFDE49CFC22EF
:10082800BB010DE58229F582E5833AF58302089636
:100838005007E92582F8020A39BBFE07E92582F844
:10084800020A45E58229F582E5833AF583020A51D1
:10085800BB010789828A830208A25005E9F8020AC7
:0A08680061BBFE05E9F8020A6D22EB
:10087200BB010DE58229F582E5833AF5830208A2E0
:100882005007E92582F8020A61BBFE07E92582F8D2
:04089200020A6D22C7
:0C089600E0FCA3E0FDA3E0FEA3E0FF22D5
:0C08A200ECF0A3EDF0A3EEF0A3EFF022C9
:1008AE00A8828583F0D083D0821208C51208C512A3
:1008BE0008C51208C5E473E493A3C583C5F0C583C8
:1008CE00C8C582C8F0A3C583C5F0C583C8C582C894
:0108DE0022F7
:1008DF00BB010789828A830208AE5005E9F8020A34
:0A08EF0079BBFE05E9F8020A922227
:1008F900BB010DE58229F582E5833AF5830208AE4D
:100909005007E92582F8020A79BBFE07E92582F832
:04091900020A92221A
:10091D00F5F0C582A4C582C5F0C583A42583F583F2
:01092D0022A7
:09092E00E0FBA3E0FAA3E0F922CA
:10093700F8E0FBA3A3E0F925F0F0E5821582700249
:070947001583E0FA38F022ED
:10094E00F8E0FBA3A3E025F0F9F0E5821582700232
:07095E001583E038FAF022D6
:09096500EBF0A3EAF0A3E9F02293
:10096E00BB010DE58229F582E5833AF58302092E56
:10097E005007E92582F8020AABBBFE07E92582F88B
:10098E00020ABDE58229F582E5833AF583020ACF94
:10099E00BB0120E58229F582E5833AF583D0F0D0BC
:1009AE00E0F8D0E0F9D0E0FAD0E0FBE8C0E0C0F02B
:1009BE000209655018E92582F8D083D082D0E0F97B
:1009CE00D0E0FAD0E0FBC082C083020AB4BBFE18AE
:1009DE00E92582F8D083D082D0E0F9D0E0FAD0E0D9
:0909EE00FBC082C083020AC6228C
:1009F700D083D082F8E4937012740193700DA3A38F
:100A070093F8740193F5828883E4737402936860A2
:060A1700EFA3A3A380DFA2
:060A1D008A838982E47364
:102F6300EFB40A07740D122F6E740A309811A899E2
:102F7300B8130CC2983098FDA899C298B811F630CE
:072F830099FDC299F59922A6
:102FC700100B0B12301EBF0D027F0A022F639001F8
:042FD70037E0FF22BE
:08302800900137EFF0D20B22FA
:102FDB00EFC394094005EF940E4004EFB42003D3E4
:042FEB008001C3227C
:100A2300C5F0F8A3E028F0C5F0F8E582158270025E
:060A33001583E038F022FB
:0C0A3900E6FC08E6FD08E6FE08E6FF22E9
:0C0A4500E2FC08E2FD08E2FE08E2FF22ED
:100A5100E493FC740193FD740293FE740393FF22EB
:0C0A6100ECF608EDF608EEF608EFF622C1
:0C0A6D00ECF208EDF208EEF208EFF222C5
:100A7900D083D082E493F608740193F60874029344
:090A8900F608740393F67404737B
:100A9200D083D082E493F208740193F20874029333
:090AA200F208740393F27404736A
:090AAB00E6FB08E6FA08E6F92270
:090AB400EBF608EAF608E9F62267
:090ABD00E2FB08E2FA08E2F9226A
:090AC600EBF208EAF208E9F22261
:0C0ACF00E493FB740193FA740293F92283
:0A301E003098FDAF99C2987E0022A1
:00000001FF
